{
  "_format": "hh-sol-artifact-1",
  "contractName": "ThreatIntel",
  "sourceName": "contracts/ThreatIntel.sol",
  "abi": [
    {
      "inputs": [
        {
          "internalType": "address",
          "name": "rewardTokenAddress",
          "type": "address"
        }
      ],
      "stateMutability": "nonpayable",
      "type": "constructor"
    },
    {
      "inputs": [
        {
          "internalType": "address",
          "name": "owner",
          "type": "address"
        }
      ],
      "name": "OwnableInvalidOwner",
      "type": "error"
    },
    {
      "inputs": [
        {
          "internalType": "address",
          "name": "account",
          "type": "address"
        }
      ],
      "name": "OwnableUnauthorizedAccount",
      "type": "error"
    },
    {
      "anonymous": false,
      "inputs": [
        {
          "indexed": true,
          "internalType": "address",
          "name": "previousOwner",
          "type": "address"
        },
        {
          "indexed": true,
          "internalType": "address",
          "name": "newOwner",
          "type": "address"
        }
      ],
      "name": "OwnershipTransferred",
      "type": "event"
    },
    {
      "anonymous": false,
      "inputs": [
        {
          "indexed": true,
          "internalType": "address",
          "name": "reporter",
          "type": "address"
        },
        {
          "indexed": false,
          "internalType": "string",
          "name": "ipfsHash",
          "type": "string"
        }
      ],
      "name": "ReportSubmitted",
      "type": "event"
    },
    {
      "anonymous": false,
      "inputs": [
        {
          "indexed": true,
          "internalType": "address",
          "name": "reporter",
          "type": "address"
        },
        {
          "indexed": false,
          "internalType": "uint256",
          "name": "amount",
          "type": "uint256"
        }
      ],
      "name": "ReporterRewarded",
      "type": "event"
    },
    {
      "inputs": [],
      "name": "owner",
      "outputs": [
        {
          "internalType": "address",
          "name": "",
          "type": "address"
        }
      ],
      "stateMutability": "view",
      "type": "function"
    },
    {
      "inputs": [],
      "name": "renounceOwnership",
      "outputs": [],
      "stateMutability": "nonpayable",
      "type": "function"
    },
    {
      "inputs": [
        {
          "internalType": "address",
          "name": "reporter",
          "type": "address"
        },
        {
          "internalType": "uint256",
          "name": "amount",
          "type": "uint256"
        }
      ],
      "name": "rewardReporter",
      "outputs": [],
      "stateMutability": "nonpayable",
      "type": "function"
    },
    {
      "inputs": [],
      "name": "rewardToken",
      "outputs": [
        {
          "internalType": "contract IERC20",
          "name": "",
          "type": "address"
        }
      ],
      "stateMutability": "view",
      "type": "function"
    },
    {
      "inputs": [
        {
          "internalType": "string",
          "name": "ipfsHash",
          "type": "string"
        }
      ],
      "name": "submitReport",
      "outputs": [],
      "stateMutability": "nonpayable",
      "type": "function"
    },
    {
      "inputs": [
        {
          "internalType": "address",
          "name": "newOwner",
          "type": "address"
        }
      ],
      "name": "transferOwnership",
      "outputs": [],
      "stateMutability": "nonpayable",
      "type": "function"
    }
  ],
  "bytecode": "0x60a06040523480156200001157600080fd5b5060405162000e3038038062000e3083398181016040528101906200003791906200029a565b33600073ffffffffffffffffffffffffffffffffffffffff168173ffffffffffffffffffffffffffffffffffffffff1603620000ad5760006040517f1e4fbdf7000000000000000000000000000000000000000000000000000000008152600401620000a49190620002dd565b60405180910390fd5b620000be816200016c60201b60201c565b50600073ffffffffffffffffffffffffffffffffffffffff168173ffffffffffffffffffffffffffffffffffffffff160362000131576040517f08c379a000000000000000000000000000000000000000000000000000000000815260040162000128906200035b565b60405180910390fd5b8073ffffffffffffffffffffffffffffffffffffffff1660808173ffffffffffffffffffffffffffffffffffffffff1681525050506200037d565b60008060009054906101000a900473ffffffffffffffffffffffffffffffffffffffff169050816000806101000a81548173ffffffffffffffffffffffffffffffffffffffff021916908373ffffffffffffffffffffffffffffffffffffffff1602179055508173ffffffffffffffffffffffffffffffffffffffff168173ffffffffffffffffffffffffffffffffffffffff167f8be0079c531659141344cd1fd0a4f28419497f9722a3daafe3b4186f6b6457e060405160405180910390a35050565b600080fd5b600073ffffffffffffffffffffffffffffffffffffffff82169050919050565b6000620002628262000235565b9050919050565b620002748162000255565b81146200028057600080fd5b50565b600081519050620002948162000269565b92915050565b600060208284031215620002b357620002b262000230565b5b6000620002c38482850162000283565b91505092915050565b620002d78162000255565b82525050565b6000602082019050620002f46000830184620002cc565b92915050565b600082825260208201905092915050565b7f72657761726420746f6b656e206973207a65726f000000000000000000000000600082015250565b600062000343601483620002fa565b915062000350826200030b565b602082019050919050565b60006020820190508181036000830152620003768162000334565b9050919050565b608051610a90620003a06000396000818161025101526104060152610a906000f3fe608060405234801561001057600080fd5b50600436106100625760003560e01c8063635ac1ed14610067578063715018a6146100835780638da5cb5b1461008d578063b75e0150146100ab578063f2fde38b146100c7578063f7c618c1146100e3575b600080fd5b610081600480360381019061007c91906105ea565b610101565b005b61008b61019b565b005b6100956101af565b6040516100a29190610678565b60405180910390f35b6100c560048036038101906100c091906106f5565b6101d8565b005b6100e160048036038101906100dc9190610735565b61037e565b005b6100eb610404565b6040516100f891906107c1565b60405180910390f35b60008282905003610147576040517f08c379a000000000000000000000000000000000000000000000000000000000815260040161013e90610839565b60405180910390fd5b3373ffffffffffffffffffffffffffffffffffffffff167f7a5abc33394d749a1c60ce992e97bc96515f7fcc173ea0908de4c36fa73df8a5838360405161018f9291906108a6565b60405180910390a25050565b6101a3610428565b6101ad60006104af565b565b60008060009054906101000a900473ffffffffffffffffffffffffffffffffffffffff16905090565b6101e0610428565b600073ffffffffffffffffffffffffffffffffffffffff168273ffffffffffffffffffffffffffffffffffffffff160361024f576040517f08c379a000000000000000000000000000000000000000000000000000000000815260040161024690610916565b60405180910390fd5b7f000000000000000000000000000000000000000000000000000000000000000073ffffffffffffffffffffffffffffffffffffffff1663a9059cbb83836040518363ffffffff1660e01b81526004016102aa929190610945565b6020604051808303816000875af11580156102c9573d6000803e3d6000fd5b505050506040513d601f19601f820116820180604052508101906102ed91906109a6565b61032c576040517f08c379a000000000000000000000000000000000000000000000000000000000815260040161032390610a1f565b60405180910390fd5b8173ffffffffffffffffffffffffffffffffffffffff167fc8ae12e13c66cfdc817755aaebcef528a42f8e59ac8ece9bc1e61625f752094d826040516103729190610a3f565b60405180910390a25050565b610386610428565b600073ffffffffffffffffffffffffffffffffffffffff168173ffffffffffffffffffffffffffffffffffffffff16036103f85760006040517f1e4fbdf70000000000000000000000000000000000000000000000000000000081526004016103ef9190610678565b60405180910390fd5b610401816104af565b50565b7f000000000000000000000000000000000000000000000000000000000000000081565b610430610573565b73ffffffffffffffffffffffffffffffffffffffff1661044e6101af565b73ffffffffffffffffffffffffffffffffffffffff16146104ad57610471610573565b6040517f118cdaa70000000000000000000000000000000000000000000000000000000081526004016104a49190610678565b60405180910390fd5b565b60008060009054906101000a900473ffffffffffffffffffffffffffffffffffffffff169050816000806101000a81548173ffffffffffffffffffffffffffffffffffffffff021916908373ffffffffffffffffffffffffffffffffffffffff1602179055508173ffffffffffffffffffffffffffffffffffffffff168173ffffffffffffffffffffffffffffffffffffffff167f8be0079c531659141344cd1fd0a4f28419497f9722a3daafe3b4186f6b6457e060405160405180910390a35050565b600033905090565b600080fd5b600080fd5b600080fd5b600080fd5b600080fd5b60008083601f8401126105aa576105a9610585565b5b8235905067ffffffffffffffff8111156105c7576105c661058a565b5b6020830191508360018202830111156105e3576105e261058f565b5b9250929050565b600080602083850312156106015761060061057b565b5b600083013567ffffffffffffffff81111561061f5761061e610580565b5b61062b85828601610594565b92509250509250929050565b600073ffffffffffffffffffffffffffffffffffffffff82169050919050565b600061066282610637565b9050919050565b61067281610657565b82525050565b600060208201905061068d6000830184610669565b92915050565b61069c81610657565b81146106a757600080fd5b50565b6000813590506106b981610693565b92915050565b6000819050919050565b6106d2816106bf565b81146106dd57600080fd5b50565b6000813590506106ef816106c9565b92915050565b6000806040838503121561070c5761070b61057b565b5b600061071a858286016106aa565b925050602061072b858286016106e0565b9150509250929050565b60006020828403121561074b5761074a61057b565b5b6000610759848285016106aa565b91505092915050565b6000819050919050565b600061078761078261077d84610637565b610762565b610637565b9050919050565b60006107998261076c565b9050919050565b60006107ab8261078e565b9050919050565b6107bb816107a0565b82525050565b60006020820190506107d660008301846107b2565b92915050565b600082825260208201905092915050565b7f656d707479207265706f72740000000000000000000000000000000000000000600082015250565b6000610823600c836107dc565b915061082e826107ed565b602082019050919050565b6000602082019050818103600083015261085281610816565b9050919050565b82818337600083830152505050565b6000601f19601f8301169050919050565b600061088583856107dc565b9350610892838584610859565b61089b83610868565b840190509392505050565b600060208201905081810360008301526108c1818486610879565b90509392505050565b7f7265706f72746572206973207a65726f00000000000000000000000000000000600082015250565b60006109006010836107dc565b915061090b826108ca565b602082019050919050565b6000602082019050818103600083015261092f816108f3565b9050919050565b61093f816106bf565b82525050565b600060408201905061095a6000830185610669565b6109676020830184610936565b9392505050565b60008115159050919050565b6109838161096e565b811461098e57600080fd5b50565b6000815190506109a08161097a565b92915050565b6000602082840312156109bc576109bb61057b565b5b60006109ca84828501610991565b91505092915050565b7f726577617264207472616e73666572206661696c656400000000000000000000600082015250565b6000610a096016836107dc565b9150610a14826109d3565b602082019050919050565b60006020820190508181036000830152610a38816109fc565b9050919050565b6000602082019050610a546000830184610936565b9291505056fea2646970667358221220fb310456f1bc2abbab2c96d1de41f7b87c88adf555b6e1c88669eaeb4f13acec64736f6c63430008140033",
  "linkReferences": {},
  "deployedLinkReferences": {}
}